:0300000002145592
:0C145500787FE4F6D8FD7581070213DDF6
:1013DD001205F37F007EF81212557FB87E0B1214A2
:1013ED000C7FE07E071212557FB87E0B12140C7F16
:0F13FD001F7E001212557FB87E0B12140C80D188
:02147C0020004E
:0B1461008FA0AF058F80C2B6D2B6226C
:05147700D2B502146172
:0A143200E0FF12143CE0FEA3E0FF0F
:0B143C00AD07AC06D2B5ECFF02146156
:0B146C00AD07AC06C2B5ECFF02146136
:0E144700AB05AA0412146CAE02AF0302143CF3
:10139800900024EEF0A3EFF0A3ECF0A3EDF07F2A89
:1013A8007E0012146C900024121432EAFF7E0012A0
:1013B800143CAE02AF0312143C7F2B7E0012146C57
:1013C800A312143290002AE0FF7E001214347F2CFE
:0513D8007E0002146C10
:1005F300D29020905BE4FDFCFFFE1214477BFF7A50
:1006030014797CE4FDFCFFFE1210B1900004120E7D
:10061300F500000000E4900008F0FDFCFFFE120F5F
:1006230026E4900006F0FBFAFDFCFFFE121152E4F3
:10063300FDFCFFFE121303E4900006F0A3F0FBFAA7
:10064300FDFCFFFE121007E4FBFDFCFFFE12082277
:10065300D2B7D2B6C2927F147E0012140CD2927F0C
:10066300147E0012140CC2907FCF7E0012146CE42F
:10067300FF12143C7FC112143C7F3012143C7FEDF7
:1006830012146C7F6412143C7F0312143C7F121209
:10069300143C7F8112143C7FCB12146C7F391214EB
:1006A3003C7F2C12143CE4FF12143C7F3412143CA4
:1006B3007F0212143C7FEA12146CE4FF12143CE430
:1006C300FF12143C7FE812146C7F8512143C7F10D8
:1006D30012143C7F7912143C7FC012146C7F2312D6
:1006E300143C7FC112146C7F1112143C7FC212148C
:1006F3006C7F1112143C7FC512146C7F3D12143CA5
:100703007F3012143C7FC712146C7FAA12143C7FF3
:100713003A12146C7F5512143C7F3612146C7F0806
:1007230012143C7FB112146CE4FF12143C7F1112BB
:10073300143C7FB612146C7F0A12143C7FA212146D
:100743003C7FF212146CE4FF12143C7FF712146C1A
:100753007F2012143C7FF112146C7F0112143C7F32
:100763003012143C7F2612146C7F0112143C7FE07C
:1007730012146C7F0F12143C7F3F12143C7F2F1214
:10078300143C7F0C12143C7F1012143C7F0A121489
:100793003C7F5312143C7FD512143C7F4012143C0F
:1007A3007F0A12143C7F1312143C7F0312143C7F04
:1007B3000812143C7F0312143CE4FF12143C7FE143
:1007C30012146CE4FF12143CE4FF12143C7F101269
:1007D300143C7F0312143C7F0F12143C7F05121448
:1007E3003C7F2C12143C7FA212143C7F3F12143C1A
:1007F3007F0512143C7F0E12143C7F0C12143C7FB5
:100803003712143C7F3C12143C7F0F12143C7F11AF
:0F08130012146C7F5012140C7F297E0002146C9B
:02125500AC06E5
:10125700EC900007F0A90790002A7401F0A3743FEF
:10126700F07BEF7A00E4FDFCFFFE121398E4900098
:1012770008F0A3F0E4FBFA900007E0FFAD011214B9
:10128700770BBB00010ABA01EEBB40EB900009E007
:1012970004F07006900008E004F0C3900009E094A1
:0912A700F0900008E0940040CB37
:0112B000221B
:1012B100900004E0FEA3E0FF900001E02FFF90000A
:1012C10000E03E900006FEE0FCA3E0FD900003E09C
:0812D1002DFD900002E03CFC41
:1012D900AB07AA068D828C83C006C007AE83AF8296
:1012E90090002AEEF0A3EFF0D007D00612139890E1
:0A12F900002CE0FEA3E0FF02143C0D
:10130300AB07AA068D828C83EB24FFFFEA34FFFE32
:10131300C006C007E58224FFFDE58334FFFCEB2410
:1013230001FBE43AFAAE83AF82EF2401FFE43E907F
:101333000006F0A3EFF090002CE0FFA3E09000087C
:0C134300CFF0A3EFF0D007D0060211D4C9
:1011D400900000EEF0A3EFF0A3ECF0A3EDF0A3EA8F
:0411E400F0A3EBF099
:1011E800C007A3E0FFA3E090002ACFF0A3EFF0D060
:1011F80007121398900002E0FFA3E090000ACFF0D6
:10120800A3EFF0900006E0FEA3E0FFD390000BE010
:101218009F90000AE09E5034900000E0FEA3E0FB9F
:10122800AA06C3900005E09B900004E09A400D9048
:1012380000081214370BBB00010A80E690000BE08F
:0C12480004F070BF90000AE004F080B7D2
:011254002277
:0E0A1900900008EEF0A3EFF0A3ECF0A3EDF0D8
:100A2700E4900012F0A3F0A3F0A3F0900008E0FE1A
:100A3700A3E0FFC3EB9FFFEA9E900016F0A3EFF041
:100A470090000AE0FAA3E0FBC390000FE09BFE9042
:100A5700000EE09A900018F0A3CEF0900008E0FF97
:100A6700A3E0900020CFF0A3EFF0A3EAF0A3EBF010
:100A7700900016E0FEA3E0FFD39400EE648094801C
:100A8700400A90001CE4F0A304F08021EF4E7008A8
:100A970090001CF0A3F0801574FF90001CF0A3F0E9
:100AA700C3E49FFFE49E900016F0A3EFF0900018B8
:100AB700E0FEA3E0FFD39400EE64809480400A90A8
:100AC700001EE4F0A304F08021EF4E700890001E92
:100AD700F0A3F0801574FF90001EF0A3F0C3E49F0D
:100AE700FFE49E900018F0A3EFF0900018E0FEA33B
:100AF700E0FF900016E0FCA3E0FDD39FEE6480F8D2
:100B0700EC64809890001A4007ECF0A3EDF08005A4
:100B1700EEF0A3EFF0E4900010F0A3F090001BE0DC
:100B27002401FF90001AE03400FED3900011E09FEB
:100B3700900010E09E4003020C03900020E0FEA30B
:100B4700E0FFA3E0FCA3E0FD1212D9900016E0FE3F
:100B5700A3E0FF900013E02FF0900012E03EF0902A
:100B67000018E0FEA3E0FF900015E02FF0900014BE
:100B7700E03EF090001AE0FEA3E0FF900012E0FCD8
:100B8700A3E0FDD39FEE6480F8EC6480984020EDED
:100B97009FFFEC9E900012F0A3EFF090001CE0FE88
:100BA700A3E0FF900021E02FF0900020E03EF090BE
:100BB700001AE0FEA3E0FF900014E0FCA3E0FDD3E1
:100BC7009FEE6480F8EC6480984020ED9FFFEC9ED8
:100BD700900014F0A3EFF090001EE0FEA3E0FF905A
:100BE7000023E02FF0900022E03EF0900011E00497
:0C0BF700F07006900010E004F0020B23E8
:010C030022CE
:10100700900004EAF0A3EBF0900000EEF0A3EFF0FD
:10101700A3ECF0A3EDF0C007A3E0FAA3E0FB900078
:1010270002E0FFA3E090000ECFF0A3EFF0D007128D
:101037000A19900000E0FAA3E0FBFFAE02C007A385
:10104700E0FCA3E0FD900006E0FFA3E090000ECFD8
:10105700F0A3EFF0D007120A19900006E0FCA3E016
:10106700FD900004E0FAA3E0FBA3E0FFA3E09000FB
:101077000ECFF0A3EFF0900000E0FEA3E0FF120A0E
:1010870019900004E0FAA3E0FBFFAE02C00790004E
:1010970002E0FCA3E0FD900006E0FFA3E090000E55
:0A10A700CFF0A3EFF0D007020A1902
:0E082200900000EEF0A3EFF0A3ECF0A3EDF0D9
:10083000E4A3F0A3F0EBFF7E00A3EEF0A3EFF0251E
:10084000E0FFEE33FEC374039F900009F0E49E9036
:100850000008F0900006E0FEA3E0FFD3900005E062
:100860009FEE6480F8900004E06480984003020AE0
:1008700018C3900001E09FFF900000E09EFE9000F2
:1008800004E0FCA3E0FDC3900003E09DFD900002A6
:10089000E09CFC1212D9900006E0FEA3E0FF90005D
:1008A00001E02FFF900000E03EFE900004E0FCA37A
:1008B000E0FDC3900003E09DFD900002E09CFC126F
:1008C00012D9900004E0FEA3E0FFC3900001E09F76
:1008D000FF900000E09E1212C4900006E0FEA3E02C
:1008E000FFC3900001E09FFF900000E09EFE90009B
:1008F00004E0FCA3E0FDC3900003E09DFD90000236
:10090000E09CFC1212D9900004E0FEA3E0FFC3902B
:100910000001E09FFF900000E09EFE900006E0FCDA
:10092000A3E0FDC3900003E09DFD900002E09CFC6D
:100930001212D9900006E0FEA3E0FF900001E02F24
:10094000FF900000E03E9000041212C7900004E007
:10095000FEA3E0FF900001E02FFF900000E03EFECC
:10096000900006E0FCA3E0FDC3900003E09DFD9035
:100970000002E09CFC1212D91212B1900006E0FEB7
:10098000A3E0FFC3900001E09FFF900000E09EFE07
:100990009000041212C8900005E004F07006900068
:1009A00004E004F0C3900008E06480948050249038
:1009B0000004E0FEA3E07802C333CE33CED8F9249E
:1009C00006FFE43EFE900009E02FF0900008E03EB4
:1009D000F0803F900006E0FEA3E0FFC3900005E03A
:1009E0009FFF900004E09EFEEF7802C333CE33CE2B
:1009F000D8F9240AFFE43EFE900009E02FF09000B1
:100A000008E03EF0900007E024FFF0900006E0349C
:080A1000FFF01212B1020853BD
:010A180022BB
:060C0400FBE4900011F07A
:100C0A0090000CEEF0A3EFF0A3ECF0A3EDF0A3EB51
:010C1A00F0E9
:100C1B0090000CE0FEA3E0FF900014EEF0A3EFF0C9
:100C2B0090002CE0FDA3E0900016CDF0A3EDF0D3E7
:100C3B00EF94E0EE94004003020D9C90000EE0FC5C
:100C4B00A3E0FD9430EC94014003020D9C90001046
:100C5B00E024E0F090000CE0FAA3E0FFAE02C00647
:100C6B00C0072407FBE43AFAA3E0FEA3E0240FFF3E
:100C7B00E43E90002AF0A3EFF0D007D006121398B1
:100C8B00900011E06003020D24F9900010E075F064
:100C9B0010A4FFE97C002FFFEC35F0FE74032FF559
:100CAB008274003EF583E493900012F0E4A3F0907D
:100CBB000012E030E005900016800390002EE0FF5C
:100CCB00A3E090002CCFF0A3EFF090002C12143780
:100CDB00900012E0C313F090000DE004F07006904A
:100CEB00000CE004F0900013E004F0E0C394084023
:100CFB00BE900014E0FFA3E090000CCFF0A3EFF048
:100D0B0090000FE004F0700690000EE004F009E98B
:100D1B0064106003020C958069E4F9900010E07593
:100D2B00F010A4FFE97C002FFFEC35F0FE74032FCD
:100D3B00F58274003EF583E493900012F0E4A3F087
:100D4B00900013E0FFC394085033900012E030E0A2
:100D5B001F90000DE02FFF90000CE03400FEE9FD2A
:100D6B0090000FE02DFD90000EE03400FC1212D924
:100D7B00900012E0C313F0A3E004F080C309E9B4C0
:100D8B001099900016E0FFA3E090002CCFF0A3EF9A
:010D9B00F067
:010D9C002234
:08134F0090000CEFF0A3EDF09B
:10135700A3120EF50000000190000DE0FF14F0EF5E
:101367006020A3E0F8A3E0F9A3E0FAA3E0FB900074
:101377000CE0FFE4FCFDFE120DCC90000E120EE90E
:1013870080D690000EE0FCA3E0FDA3E0FEA3E0FF03
:011397002233
:0E0F2600900000EEF0A3EFF0A3ECF0A3EDF0CE
:100F3400E490000BF0900004A3A3E0FEA3E0FFE420
:100F4400FCFD900004120EE9E4900009F090000802
:100F5400E0FFA3E0FEC39F4003021006C3EF9E140C
:100F6400FD7F0A12134FA804A905AA06AB07900037
:100F740004E0FCA3E0FDA3E0FEA3E0FF120E57E4AF
:100F84007B0AFAF9F8120E5790000AEBF0A3E0700E
:100F94003B900008E014FFA3E0FEC39F502EA3E0A3
:100FA4007024EE75F008A4FF900001E02FFF90007C
:100FB40000E035F0FE900002E0FCA3E0FDE49000C8
:100FC40011F07B20803090000B7401F0900009E058
:100FD40075F008A4FF900001E02FFF900000E035B9
:100FE400F0FE900002E0FCA3E0FD90000AE0243053
:100FF400FBE4900011F0120C0A900009E004F002E6
:021004000F518A
:0110060022C7
:10115200900000EEF0A3EFF0A3ECF0A3EDF0A3EA11
:04116200F0A3EBF01B
:10116600E4900007F0900006E0F9A3E0FFC3995071
:101176005CC3E99F14FD7F0A12134FA804A905AAB0
:1011860006AB07900004E0FEA3E0FFE4FCFD120EB0
:1011960057E47B0AFAF9F8120E57AF03900008EFEE
:1011A600F0900007E075F008A4FF900001E02FFF23
:1011B600900000E035F0FE900002E0FCA3E0FDEBBD
:0D11C6002430120C04900007E004F0809823
:0111D30022F9
:1010B100900000EEF0A3EFF0A3ECF0A3EDF0A3EBB2
:1010C100F0A3EAF0A3E9F0900004E0FBA3E0FAA3A7
:1010D100E0F9120D9D6079D3900001E094E0900059
:1010E10000E094004012E4F0A3F0900003E024102B
:1010F100F0900002E03400F0D3900003E0943090CF
:101101000002E094014011E4900000F0A3F0A3F08C
:10111100A3F0FF7EF8121255900000E0FEA3E0FF5D
:10112100A3E0FCA3E0FDA3E0FBA3E0FAA3E0F91236
:101131000D9D120C04900001E02408F0900000E0E5
:101141003400F0900005E475F001120DB60210C8EC
:01115100227B
:10140C00E4FDFCC3ED9FEE6480F8EC64809850150D
:10141C00E4FBFA0BBB00010ABA03F8BBE8F50DBDFF
:05142C0000010C80DE50
:011431002298
:1000030000000000000000000000000000000000ED
:100013000000000808080808080800001818000075
:1000230000486C24120000000000000000000000E3
:100033000000002424247F1212127F1212120000E7
:100043000000081C2A2A0A0C1828282A2A1C080837
:1000530000000022251515152A5854545422000077
:100063000000000C1212120A76252911916E00006D
:10007300000606040300000000000000000000006A
:10008300004020101008080808080810102040003D
:1000930000020408081010101010100808040200D1
:1000A3000000000008086B1C1C6B0808000000001F
:1000B30000000000080808087F080808080000007E
:1000C300000000000000000000000000060604031A
:1000D3000000000000000000FE000000000000001F
:1000E3000000000000000000000000000606000001
:1000F3000000804040202010100808040402020081
:1001030000000018244242424242424224180000A6
:10011300000000080E08080808080808083E000048
:100123000000003C4242422020100804427E0000AE
:100133000000003C4242201820404042221C0000A4
:10014300000000203028242422227E202078000072
:100153000000007E0202021A26404042221C0000D8
:10016300000000382402021A2642424224180000EA
:100173000000007E2222101008080808080800006A
:100183000000003C4242422418244242423C000008
:10019300000000182442424264584040241C0000DE
:1001A30000000000000018180000000018180000EC
:1001B3000000000000000008000000000008080420
:1001C3000000004020100804020408102040000032
:1001D3000000000000007F0000007F00000000001E
:1001E3000000000204081020402010080402000050
:1001F3000000003C42424640201010001818000046
:100203000000001C225A555555552D42221C000052
:100213000000000808181414243C224242E700009E
:100223000000001F2222221E22424242221F0000FF
:100233000000007C4242010101010142221C000036
:100243000000001F2242424242424242221F00005B
:100253000000003F4212121E12120242423F0000EF
:100263000000003F4212121E121202020207000097
:100273000000003C2222010101712122221C000006
:10028300000000E7424242427E42424242E700000F
:100293000000003E0808080808080808083E000097
:1002A3000000007C10101010101010101010110F0F
:1002B3000000007722120A0E0A121222227700008F
:1002C300000000070202020202020202427F000053
:1002D30000000077363636362A2A2A2A2A6B00008F
:1002E300000000E346464A4A525252626247000007
:1002F3000000001C2241414141414141221C0000B8
:100303000000003F424242423E0202020207000056
:100313000000001C2241414141414D53321C600009
:100323000000003F4242423E1212222242C7000016
:100333000000007C4242020418204042423E00007A
:100343000000007F4908080808080808081C000086
:10035300000000E74242424242424242423C000025
:10036300000000E742422224241414180808000065
:100373000000006B494949495555362222220000A5
:10038300000000E7422424181818242442E7000040
:10039300000000772222141408080808081C000033
:1003A3000000007E2120101008040442423F000098
:1003B30000780808080808080808080808087800EA
:1003C3000000020204040808081010202020404006
:1003D300001E1010101010101010101010101E001E
:1003E300003844000000000000000000000000008E
:1003F300000000000000000000000000000000FFFB
:1004030000060800000000000000000000000000DB
:10041300000000000000003C4278444242FC00001F
:10042300000000030202021A26424242261A00007A
:1004330000000000000000384402020244380000BB
:1004430000000060404040784442424264D80000CB
:10045300000000000000003C427E0202423C00001B
:10046300000000F08808087E08080808083E00001D
:10047300000000000000007C22221C023C42423C9F
:10048300000000030202023A4642424242E70000F1
:100493000000000C0C00000E08080808083E0000CD
:1004A3000000003030000038202020202020221EB1
:1004B3000000000302020272120A161222770000E1
:1004C3000000000E0808080808080808083E000095
:1004D300000000000000007F9292929292B7000009
:1004E300000000000000003B4642424242E7000099
:1004F300000000000000003C42424242423C000037
:10050300000000000000001B26424242221E020798
:10051300000000000000007844424242447840E07A
:1005230000000000000000774C040404041F0000D6
:10053300000000000000007C42023C40423E0000FC
:10054300000000000008083E080808080830000002
:1005530000000000000000634242424262DC0000EF
:1005630000000000000000E74224241408080000F3
:1005730000000000000000EB49495555222200000D
:10058300000000000000007624181818246E0000F4
:1005930000000000000000E74224241418080807A4
:1005A300000000000000007E22100808447E0000C6
:1005B30000C0202020202010202020202020C00048
:1005C3001010101010101010101010101010101028
:1005D30000060808080808100808080808080600A4
:1005E3000C32C20000000000000000000000000008
:100D9D00BB010689828A83E0225002E722BBFE0254
:090DAD00E32289828A83E4932287
:100DB600C5F0F8A3E028F0C5F0F8E58215827002C8
:060DC6001583E038F02265
:100DCC00E88FF0A4CC8BF0A42CFCE98EF0A42CFCC6
:100DDC008AF0EDA42CFCEA8EF0A4CDA8F08BF0A444
:100DEC002DCC3825F0FDE98FF0A42CCD35F0FCEBA3
:100DFC008EF0A4FEA9F0EB8FF0A4CFC5F02ECD3968
:0F0E0C00FEE43CFCEAA42DCE35F0FDE43CFC22D4
:100E1B0075F008758200EF2FFFEE33FECD33CDCC8E
:100E2B0033CCC58233C5829BED9AEC99E582984011
:100E3B000CF582EE9BFEED9AFDEC99FC0FD5F0D6EE
:100E4B00E4CEFBE4CDFAE4CCF9A88222B800C1B918
:100E5B000059BA002DEC8BF084CFCECDFCE5F0CB56
:100E6B00F97818EF2FFFEE33FEED33FDEC33FCEB8F
:100E7B0033FB10D703994004EB99FB0FD8E5E4F94A
:100E8B00FA227818EF2FFFEE33FEED33FDEC33FC37
:100E9B00C933C910D7059BE99A4007EC9BFCE99A2B
:100EAB00F90FD8E0E4C9FAE4CCFB2275F010EF2F70
:100EBB00FFEE33FEED33FDCC33CCC833C810D70770
:100ECB009BEC9AE899400AED9BFDEC9AFCE899F8AB
:0E0EDB000FD5F0DAE4CDFBE4CCFAE4C8F9223E
:0C0EE900ECF0A3EDF0A3EEF0A3EFF0227C
:100EF500A8828583F0D083D082120F0C120F0C12BA
:100F05000F0C120F0CE473E493A3C583C5F0C583DE
:100F1500C8C582C8F0A3C583C5F0C583C8C582C846
:010F250022A9
:00000001FF
